:100000000C94AB000C9484010C94A7010C94C800D0
:100010000C94C8000C94C8000C94C8000C94CA013D
:100020000C94C8000C94C8000C9440020C94C800B6
:100030000C94C8000C94C8000C94C8000C94C80020
:100040000C94C8000C94C8000C94C8000C94C80010
:100050000C94C8006E616E00696E660000407A10F4
:10006000F35A00A0724E18090010A5D4E80000E869
:100070007648170000E40B54020000CA9A3B0000C7
:1000800000E1F505000080969800000040420F0056
:100090000000A08601000000102700000000E80317
:1000A000000000006400000000000A0000000000E2
:1000B0000100000000002C76D888DC674F0823DFA1
:1000C000C1DFAE59E1B1B796E5E3E453C63AE65174
:1000D000997696E8E6C28426EB898C9B62ED407C9B
:1000E0006FFCEFBC9C9F40F2BAA56FA5F490055A37
:1000F0002AF75C936B6CF9676DC11BFCE0E40D475C
:10010000FEF520E6B500D0ED902E0300943577057E
:100110000080841E080000204E0A000000C80C3336
:100120003333330F986E12831141EF8D2114893BC5
:10013000E65516CFFEE6DB18D1844B381BF77C1D45
:10014000901DA4BBE424203284725E228100C9F198
:1001500024ECA1E53D2711241FBECFE5D8E0DEBF8A
:10016000CDBF10E0A0E6B0E0E0E0F9E102C005900C
:100170000D92AC3DB107D9F720E0ACEDB0E001C085
:100180001D92AA3FB207E1F70E9448030C947E0C2F
:100190000C94000098B39F70282F207F922B98BB5F
:1001A00098B39D7F98BB98B3916098BB32E03A9525
:1001B000F1F700C098B39E7F98BBEFE8F1E031976C
:1001C000F1F700C0000028B3F0E18F9FC0011124B7
:1001D000922F9F70892B88BB88B3816088BB32E0E7
:1001E0003A95F1F700C088B38E7F88BB8FE99FE016
:1001F0000197F1F700C00000089598B39F70282F71
:10020000207F922B98BB98B3926098BB98B3916073
:1002100098BB32E03A95F1F700C098B39E7F98BB47
:10022000EFE8F1E03197F1F700C0000028B3F0E10A
:100230008F9FC0011124922F9F70892B88BB88B398
:10024000816088BB32E03A95F1F700C088B38E7FB9
:1002500088BB8FE99FE00197F1F700C00000089587
:100260008FEC87BB8FE39CE90197F1F700C000009A
:1002700082E00E94CA0088E20E94CA008CE00E94CC
:10028000CA0086E00E94CA0081E00E94CA008FE98D
:100290009FE00197F1F700C0000008950F931F93AE
:1002A000CF93DF938A01811108C0603130F4862F2B
:1002B0008F7080680E94CA0009C0813039F46031B3
:1002C00028F4862F8F70806C0E94CA00C0E0D0E0B6
:1002D00003C00E94FD002196F801EC0FFD1F8081F4
:1002E0008111F7CFDF91CF911F910F91089581E098
:1002F0000E94CA008FE99FE00197F1F700C000005B
:1003000080E80E94CA0008951F920F920FB60F92C4
:1003100011248F939F9309B604FE0FC089B78F7E77
:1003200089BF8CB59DB5892B59F08091E3008F5F13
:100330008093E3001DBC1CBC03C089B7806189BFEA
:100340009F918F910F900FBE0F901F9018951F9245
:100350000F920FB60F9211248F939F9309B604FE4C
:100360000FC089B78F7E89BF8CB59DB5892B59F099
:100370008091E300882339F081508093E30003C02B
:1003800089B7806189BF9F918F910F900FBE0F90A9
:100390001F9018951F920F920FB60F9211248F93F2
:1003A00089B78F7E89BF1DBC1CBC8F910F900FBE7B
:1003B0000F901F90189597B1907F8F70892B87B9F8
:1003C00086B1806486B93699FECF84B195B108951F
:1003D000811129C090E051C082B321E030E0062EA7
:1003E00002C0220F331F0A94E2F7822B82BB80E007
:1003F00007C0E7ECF0E03197F1F700C000008F5F35
:100400008F30B8F382B32095282322BB80E007C049
:10041000E7ECF0E03197F1F700C000008F5F8F301C
:10042000B8F39F5F01C090E09436B0F2089582B3B4
:1004300021E030E0062E02C0220F331F0A94E2F7BB
:10044000822B82BB80E007C0E7ECF0E03197F1F748
:1004500000C000008F5F8530B8F382B32095282359
:1004600022BB80E007C0E7ECF0E03197F1F700C075
:1004700000008F5F8530B8F39F5F9436C0F2089517
:100480001F920F920FB60F9211248F939F9380911A
:10049000E1009091E20001969093E2008093E100E8
:1004A00012BE9F918F910F900FBE0F901F901895C5
:1004B000CF92DF92EF92FF921092DE001092DD0059
:1004C0001092DC0080E033C095B3986095BB9AE150
:1004D0009A95F1F700C09A9B11C047E050E0481B85
:1004E000510921E030E002C0220F331F4A95E2F7A4
:1004F0009091DE00292B2093DE0011C047E050E0F0
:10050000481B510921E030E002C0220F331F4A95F9
:10051000E2F720959091DE0029232093DE0095B329
:10052000977F95BB9DE09A95F1F700008F5F88302B
:1005300058F280E03EC095B3986095BB9AE19A95D9
:10054000F1F700C09A9B16C04FE050E0481B5109DC
:1005500021E030E002C0220F331F4A95E2F74091BC
:10056000DC005091DD00242B352B3093DD002093EF
:10057000DC0017C04FE050E0481B510921E030E09B
:1005800002C0220F331F4A95E2F720953095409123
:10059000DC005091DD00242335233093DD002093CF
:1005A000DC0095B3977F95BB9DE09A95F1F700002D
:1005B0008F5F803108F4BFCF8091DC009091DD0027
:1005C000969587959093DD008093DC006091DE0026
:1005D00060FF05C090689093DD008093DC00669515
:1005E0006093DE0070E080E090E00E94FE0524E66B
:1005F00032EA48E650E40E948F066B017C0160916C
:10060000DC007091DD0080E090E00E94FC0523E3B7
:100610003BED4CE856E40E945B059B01AC01C70131
:10062000B6010E94EF04FF90EF90DF90CF90089505
:1006300082B38F7E82BB85E88A95F1F7000082B392
:10064000806182BB85E88A95F1F7000082B38F7ED6
:1006500082BB04C01092E2001092E100859BFACFA9
:1006600014C06091E1007091E20080E090E00E948F
:10067000FC0527E33AE144E850E40E945B050E9450
:10068000CD057093E0006093DF008599EACF08956F
:100690000E94300140E650E064E080E00E944E019C
:1006A0002FEF34E38CE0215030408040E1F700C070
:1006B00000000E94770185B78F6085BF8BB7806C83
:1006C0008BBF86B1876086B987B1806C87B986B1E8
:1006D000806886B98BB382608BBB8EB58D608EBD12
:1006E0001DBC1CBC82E19AE79BBD8ABD81B38061C1
:1006F00081BB81B3806481BB81B3806881BB83B7D8
:10070000886083BF83B7826083BF12BE8AE08CBFDC
:1007100089B7826089BF84B3886084BB85B3877FD3
:1007200085BB8AB380648ABB8AB380688ABB7894AD
:100730009F9B11C067E081E00E94E8019FEF23EDDD
:1007400030E3915020403040E1F700C0000067E006
:1007500080E00E94E801C99906C18091E3008A30D7
:1007600008F001C180E00E94DB01BC0180E090E064
:100770000E94FC0528E030E240E85EE30E948F061C
:100780000E94CD057093E5006093E4006452710906
:100790006230710508F0D0C00E94770148E650E051
:1007A00060E080E00E944E018BB380648BBB8FEFD2
:1007B0009EE924E2815090402040E1F700C0000013
:1007C0008BB38F7B8BBB0E94770147E750E060E0E3
:1007D00080E00E944E01F12CAAC00E945802062F10
:1007E000172FD82FC92F9F938F937F936F9381E8F3
:1007F00090E09F938F9386EE90E09F938F930E945B
:10080000FE0B46EE50E060E081E00E944E018DB7A5
:100810009EB708960FB6F8949EBF0FBE8DBF20E01E
:1008200030E040E751E4602F712F8D2F9C2F0E9404
:100830008A0618160CF071C00E94770149E850E052
:1008400060E080E00E944E01C0E063C00E94180397
:100850008091E0008F938091DF008F9385E990E095
:100860009F938F9386EE90E09F938F930E94FE0B51
:1008700046EE50E060E081E00E944E018091DF0092
:100880009091E0000F900F900F900F900F900F90AD
:100890004497A8F59FEF24E33CE09150204030407E
:1008A000E1F700C0000066E081E00E94E8018FEF00
:1008B00090E722E0815090402040E1F700C0000026
:1008C00066E080E00E94E8013FEF89E698E1315060
:1008D00080409040E1F700C0000067E081E00E94A6
:1008E000E8012FEF33ED80E3215030408040E1F705
:1008F00000C0000067E080E00E94E80134C09FEF84
:1009000020E732E0915020403040E1F700C0000085
:10091000CF5FC43608F49ACF26C08FEF90E722E06D
:10092000815090402040E1F700C00000F39433E68E
:100930003F1508F052CF17C00E9477014CE950E0F4
:1009400060E080E00E944E018BB380688BBB8FEF2C
:1009500093ED20E3815090402040E1F700C000007B
:100960008BB38F778BBB8091E5008F938091E400F0
:100970008F938091E3001F928F9386EA90E09F937C
:100980008F9386EE90E09F938F930E94FE0B46EE2E
:1009900050E060E080E00E944E018FE19EE401970C
:1009A000F1F700C000008091E3002DB73EB7285F4B
:1009B0003F4F0FB6F8943EBF0FBE2DBF863038F0C4
:1009C0004AEB50E060E081E00E944E01B1CE4BEC7A
:1009D00050E060E081E00E944E01AACE5058BB2753
:1009E000AA270E9406050C9450060E94420638F081
:1009F0000E94490620F039F49F3F19F426F40C9424
:100A00003F060EF4E095E7FB0C943906E92F0E94AF
:100A1000610658F3BA17620773078407950720F039
:100A200079F4A6F50C9483060EF4E0950B2EBA2FFC
:100A3000A02D0B01B90190010C01CA01A0011124E4
:100A4000FF27591B99F0593F50F4503E68F11A1690
:100A5000F040A22F232F342F4427585FF3CF469521
:100A600037952795A795F0405395C9F77EF41F1643
:100A7000BA0B620B730B840BBAF09150A1F0FF0F0D
:100A8000BB1F661F771F881FC2F70EC0BA0F621FF9
:100A9000731F841F48F4879577956795B795F795E9
:100AA0009E3F08F0B0CF9395880F08F09927EE0F7E
:100AB0009795879508950E946F050C9450060E94A3
:100AC000490658F00E94420640F029F45F3F29F0A1
:100AD0000C94390651110C9484060C943F060E9424
:100AE000610668F39923B1F3552391F3951B550BD8
:100AF000BB27AA2762177307840738F09F5F5F4FF1
:100B0000220F331F441FAA1FA9F335D00E2E3AF02F
:100B1000E0E832D091505040E695001CCAF72BD047
:100B2000FE2F29D0660F771F881FBB1F2617370798
:100B30004807AB07B0E809F0BB0B802DBF01FF27CA
:100B400093585F4F3AF09E3F510578F00C94390668
:100B50000C9484065F3FE4F3983ED4F38695779532
:100B60006795B795F7959F5FC9F7880F911D969583
:100B7000879597F90895E1E0660F771F881FBB1FDF
:100B8000621773078407BA0720F0621B730B840B8C
:100B9000BA0BEE1F88F7E09508950E94690688F069
:100BA0009F5798F0B92F9927B751B0F0E1F0660F31
:100BB000771F881F991F1AF0BA95C9F714C0B13072
:100BC00091F00E948306B1E008950C948306672F8C
:100BD000782F8827B85F39F0B93FCCF386957795A1
:100BE0006795B395D9F73EF490958095709561958A
:100BF0007F4F8F4F9F4F0895E89409C097FB3EF4B5
:100C000090958095709561957F4F8F4F9F4F992359
:100C1000A9F0F92F96E9BB279395F69587957795D7
:100C20006795B795F111F8CFFAF4BB0F11F460FF97
:100C30001BC06F5F7F4F8F4F9F4F16C0882311F0EF
:100C400096E911C0772321F09EE8872F762F05C003
:100C5000662371F096E8862F70E060E02AF09A959E
:100C6000660F771F881FDAF7880F9695879597F993
:100C7000089597F99F6780E870E060E008959FEF1E
:100C800080EC089500240A94161617061806090623
:100C9000089500240A9412161306140605060895F2
:100CA000092E0394000C11F4882352F0BB0F40F47A
:100CB000BF2B11F460FF04C06F5F7F4F8F4F9F4FBA
:100CC000089557FD9058440F551F59F05F3F71F03C
:100CD0004795880F97FB991F61F09F3F79F08795A3
:100CE0000895121613061406551FF2CF4695F1DF2C
:100CF00008C0161617061806991FF1CF86957105BC
:100D0000610508940895E894BB2766277727CB01EF
:100D100097F908950E94FC0608F48FEF08950E9449
:100D2000A2060C9450060E94420638F00E94490622
:100D300020F0952311F00C9439060C943F061124F1
:100D40000C9484060E94610670F3959FC1F3950F81
:100D500050E0551F629FF001729FBB27F00DB11D3F
:100D6000639FAA27F00DB11DAA1F649F6627B00DCF
:100D7000A11D661F829F2227B00DA11D621F739FB8
:100D8000B00DA11D621F839FA00D611D221F749FC6
:100D90003327A00D611D231F849F600D211D822F0D
:100DA000762F6A2F11249F5750409AF0F1F0882334
:100DB0004AF0EE0FFF1FBB1F661F771F881F915061
:100DC0005040A9F79E3F510580F00C9439060C94D1
:100DD00084065F3FE4F3983ED4F386957795679554
:100DE000B795F795E7959F5FC1F7FE2B880F911D8B
:100DF0009695879597F90895990F0008550FAA0BB6
:100E0000E0E8FEEF16161706E807F907C0F012161D
:100E10001306E407F50798F0621B730B840B950B20
:100E200039F40A2661F0232B242B252B21F4089575
:100E30000A2609F4A140A6958FEF811D811D089512
:100E4000A0E1B0E0E6E2F7E00C949D0A7C011B0112
:100E50006A01FC0117821682838181FF44C39E01CF
:100E60002F5F3F4F3901F7019381F10193FD859188
:100E700093FF81911F01882309F431C3853239F42E
:100E800093FD859193FF81911F01853239F4B7015C
:100E900090E00E94C20B56016501E5CF10E0512C95
:100EA000912CFFE1F915D8F08B3279F038F48032CB
:100EB00079F08332A1F4F92DF0612EC08D3261F00A
:100EC000803369F4292D21602DC0392D3260932E95
:100ED000892D8460982E2AC0E92DE86015C097FC02
:100EE0002DC020ED280F2A3088F496FE06C03AE087
:100EF000139F200D1124122F19C08AE0589E200D37
:100F00001124522EE92DE0629E2E10C08E3231F453
:100F100096FCE5C2F92DF0649F2E08C08C3621F4B2
:100F2000292D2068922E02C0883641F4F10193FDEC
:100F3000859193FF81911F018111B3CF9BEB980F96
:100F4000933020F4992D9061805E07C09BE9980F43
:100F5000933008F066C1992D9F7E96FF16E09F732F
:100F6000992E853619F49064992E08C0863621F49E
:100F7000392F3068932E02C01111115097FE07C00F
:100F80001C3350F444244394410E27E00BC0183026
:100F900038F027E017E005C027E09CE3492E02C0A7
:100FA000212F412C560184E0A80EB11CF60160816E
:100FB000718182819381042DA3010E94D40A6C0166
:100FC000F981FC87F0FF02C0F3FF06C091FC06C068
:100FD00092FE06C000E205C00DE203C00BE201C0B4
:100FE00000E08C858C7019F001115AC29BC297FEEB
:100FF00010C04C0CFC85F4FF04C08A81813309F4D5
:101000004A94141474F528E0241578F588E0482EE5
:101010002CC096FC2AC0812F90E08C159D059CF079
:101020003CEFC3163FEFD30674F0892D8068982EED
:101030000AC0E2E0F0E0EC0FFD1FE10FF11D80813E
:10104000803319F411501111F4CF97FE0EC04424CF
:101050004394410E812F90E0C816D9062CF41C1938
:1010600004C04424439401C010E097FE06C01C1441
:101070001D0434F4C601019605C085E090E002C06D
:1010800081E090E001110196112331F0212F30E031
:101090002F5F3F4F820F931F252D30E0821793075C
:1010A00014F4581A01C0512C892D897049F4552027
:1010B00039F0B70180E290E00E94C20B5A94F7CF5A
:1010C000002329F0B701802F90E00E94C20B93FC0F
:1010D00009C0552039F0B70180E390E00E94C20BAF
:1010E0005A94F7CF97FE4CC04601D7FE02C0812C20
:1010F000912CC60188199909F301E80FF91FFE87A1
:10110000ED87960124193109388B2F87012F10E0C4
:101110001195019511093FEF8316930629F4B70144
:101120008EE290E00E94C20BC814D9044CF08F8567
:1011300098898815990524F4ED85FE85818101C083
:1011400080E3F1E08F1A91082D853E852F5F3F4F98
:101150003E872D87801691062CF0B70190E00E9403
:10116000C20BD9CFC814D90441F49A81963320F424
:10117000953319F43C8534FF81E3B70190E04EC00C
:101180008A81813319F09C859F7E9C87B70190E00E
:101190000E94C20B111105C094FC18C085E690E0B6
:1011A00017C0B7018EE290E00E94C20B1E5F82E082
:1011B00001E0080FF301E80FF11D8081B70190E015
:1011C0000E94C20B802F0113F3CFE6CF85E490E09D
:1011D000B7010E94C20BD7FC06C0C114D10441F470
:1011E000EC85E4FF05C0D194C194D1088DE201C023
:1011F0008BE2B70190E00E94C20B80E32AE0C216A6
:10120000D1042CF08F5FFAE0CF1AD108F7CFB701E5
:1012100090E00E94C20BB701C601C0960E94C20BAB
:1012200054C1833631F0833779F0833509F056C0E5
:1012300020C0560132E0A30EB11CF60180818983E3
:1012400001E010E0630112C05601F2E0AF0EB11CE4
:10125000F601C080D18096FE03C0612F70E002C00D
:101260006FEF7FEFC6010E94B70B8C01F92DFF775E
:1012700014C0560122E0A20EB11CF601C080D1803C
:1012800096FE03C0612F70E002C06FEF7FEFC601D2
:101290000E94AC0B8C01F92DF0689F2EF3FD1AC053
:1012A000852D90E008171907A8F4B70180E290E0B7
:1012B0000E94C20B5A94F4CFF60197FC859197FED9
:1012C00081916F01B70190E00E94C20B51105A94B6
:1012D000015011090115110579F7F7C0843611F095
:1012E000893661F5560197FE09C024E0A20EB11CB3
:1012F000F60160817181828193810AC0F2E0AF0EB4
:10130000B11CF60160817181072E000C880B990BCE
:10131000F92DFF769F2E97FF09C0909580957095C7
:1013200061957F4F8F4F9F4FF0689F2E2AE030E0EE
:10133000A3010E94200CC82EC6183FC0092D853776
:1013400021F40F7E2AE030E01DC0097F8F3691F036
:1013500018F4883559F0C3C0803719F0883711F078
:10136000BEC0006104FF09C0046007C094FE08C04D
:10137000066006C028E030E005C020E130E002C091
:1013800020E132E0560107FF09C084E0A80EB11C3D
:10139000F601608171818281938108C0F2E0AF0E15
:1013A000B11CF6016081718180E090E0A3010E9490
:1013B000200CC82EC6180F77902E96FE0BC0092D54
:1013C0000E7FC11650F494FE0AC092FC08C0092D8D
:1013D0000E7E05C0DC2C092D03C0DC2C01C0D12EF3
:1013E00004FF0DC0FE01EC0DF11D8081803311F46E
:1013F000097E09C002FF06C0D394D39404C0802F95
:10140000867809F0D39403FD11C000FF06C01C2D9F
:10141000D51480F4150D1D190DC0D51458F4B7015D
:1014200080E290E00E94C20BD394F7CFD51410F461
:101430005D1801C0512C04FF10C0B70180E390E09B
:101440000E94C20B02FF17C001FD03C088E790E0B5
:1014500002C088E590E0B7010CC0802F867859F073
:1014600001FF02C08BE201C080E207FD8DE2B701FF
:1014700090E00E94C20BC11638F4B70180E390E0FF
:101480000E94C20B1150F7CFCA94F301EC0DF11D6D
:101490008081B70190E00E94C20BC110F5CF15C04A
:1014A000F4E0F51560F584E0581A93FE1FC00111B1
:1014B00027C02C8523FF2AC004E510E0392D3071A8
:1014C000932EF8018491811124C0552009F4E4CCB5
:1014D000B70180E290E00E94C20B5A94F6CFF70168
:1014E0008681978126C08FEF9FEF23C0B70180E2EE
:1014F00090E00E94C20B5A945110F8CFD8CF512CD3
:10150000B701802F90E00E94C20BD3CF08E510E016
:10151000D5CF91108052B70190E00E94C20B0F5FAF
:101520001F4FCFCF23E0251510F483E0BDCF512C02
:10153000C0CF6096E2E10C94B90A2F923F924F928D
:101540005F926F927F928F929F92AF92BF92CF9253
:10155000DF92EF92FF920F931F93CF93DF93CDB75C
:10156000DEB7CA1BDB0B0FB6F894DEBF0FBECDBFD4
:1015700009942A88398848885F846E847D848C84A5
:101580009B84AA84B984C884DF80EE80FD800C81AE
:101590001B81AA81B981CE0FD11D0FB6F894DEBF91
:1015A0000FBECDBFED010895283008F027E03327A6
:1015B000DA01990F311D87FD916000966105710573
:1015C00039F432602E5F3D9330E32A95E1F70895B8
:1015D0009F3F30F080387105610509F03C5F3C5F4A
:1015E0003D93913008F08068911DDF93CF931F9356
:1015F0000F93FF92EF92192F987F9695E92F96956A
:101600009695E90FFF27EA54FF4F99273327EE24D9
:10161000FF24A701E70105900894079428F4360FEA
:10162000E71EF81E491F511D660F771F881F991F5F
:101630000694A1F70590079428F4E70EF81E491FB9
:10164000561FC11D770F881F991F661F0694A1F7AB
:101650000590079428F4F80E491F561FC71FD11D87
:10166000880F991F661F771F0694A1F705900794AE
:1016700020F4490F561FC71FD81F990F661F771FE9
:10168000881F0694A9F784911095177041F0D6959C
:10169000C79557954795F794E7941A95C1F7ECE5E8
:1016A000F0E06894159015913591659195910590AC
:1016B0007FE27395E118F10A430B560BC90BD00971
:1016C000C0F7E10CF11E431F561FC91FD01D7EF449
:1016D000703311F48A95E6CFE894015030F0080F8A
:1016E0000AF40027021708F4202F2395022F7A33DB
:1016F00028F079E37D932A95E9F710C07D932A9528
:1017000089F6069497956795379517951794E1187C
:10171000F10A430B560BC90BD00998F023957E9123
:1017200073957A3308F070E37C932013B8F77E91B9
:1017300070617D9330F0839571E37D9370E32A951A
:10174000E1F71124EF90FF900F911F91CF91DF915E
:10175000992787FD90950895FC0105906150704090
:101760000110D8F7809590958E0F9F1F0895FC016A
:101770006150704001900110D8F7809590958E0FC0
:101780009F1F08950F931F93CF93DF93FB01238136
:1017900021FD03C08FEF9FEF2CC022FF16C04681B2
:1017A0005781248135814217530744F4A081B181C8
:1017B0009D012F5F3F4F318320838C93268137819A
:1017C0002F5F3F4F3783268314C08B01EC01FB0151
:1017D0000084F185E02D0995892BE1F6D801169654
:1017E0008D919C911797019617969C938E931697BF
:1017F000CE01DF91CF911F910F910895AEE0B0E03F
:10180000E4E0FCE00C94AB0A0D891E8986E08C8331
:101810001A8309838FEF9FE79E838D83AE01475E16
:101820005F4F6F89788DCE0101960E942007EF816E
:10183000F885E00FF11F10822E96E4E00C94C70AA1
:10184000FA01AA27283051F1203181F1E8946F93F1
:101850006E7F6E5F7F4F8F4F9F4FAF4FB1E03ED097
:10186000B4E03CD0670F781F891F9A1FA11D680F35
:10187000791F8A1F911DA11D6A0F711D811D911D68
:10188000A11D20D009F468943F912AE0269F1124DD
:101890003019305D3193DEF6CF010895462F477041
:1018A000405D4193B3E00FD0C9F7F6CF462F4F709C
:1018B000405D4A3318F0495D31FD4052419302D0FA
:1018C000A9F7EACFB4E0A6959795879577956795A0
:1018D000BA95C9F700976105710508959B01AC01A0
:1018E0000A2E06945795479537952795BA95C9F7C7
:1018F000620F731F841F951FA01D0895F894FFCFDA
:1019000057656C636F6D650054656D7065726174C9
:10191000757265204F4B004D616B6520666565747F
:101920000025302E32664B6700506C656173652070
:1019300048616E640025303375636D005472792000
:10194000416761696E00436F756E742D20253032DA
:101950007520253033754320200050656F706C650D
:10196000206C696D6974656420200020202020208F
:0C1970002020202020202020202000002B
:00000001FF
